:020000040800F2
:10000000F8180020390300080B090008A9040008AB
:100010000909000805040008C50C000800000000DC
:1000200000000000000000000000000005020008C1
:100030000704000800000000B102000825030008C2
:100040005D0300085D0300085D0300085D03000810
:100050005D0300085D0300085D0300085D03000800
:100060005D0300085D0300085D0300085D030008F0
:100070005D0300085D0300085D0300085D030008E0
:100080005D0300085D0300085D0300085D030008D0
:100090005D0300085D0300085D0300085D030008C0
:1000A0005D0300085D0300085D0300085D030008B0
:1000B0005D0300085D0300085D0300085D030008A0
:1000C0005D0300085D0300085D0300085D03000890
:1000D0005D0300085D0300085D0300085D03000880
:1000E0005D0300085D0300085D0300085D03000870
:1000F0005D0300085D0300085D0300085D03000860
:100100005D0300085D0300085D0300085D0300084F
:100110005D0300085D0300085D0300085D0300083F
:100120005D0300085D0300085D0300085D0300082F
:100130005D0300085D0300085D0300085D0300081F
:100140005D0300085D0300085D0300085D0300080F
:100150005D0300085D0300085D0300085D030008FF
:100160005D0300085D0300085D0300085D030008EF
:100170005D0300085D0300085D0300085D030008DF
:100180005D0300085D030008DFF80CD000F0EEF816
:1001900000480047E50E0008F818002080F30988A1
:1001A0007047EFF309807047684680F30988044878
:1001B0000078C00714BF0220032080F31488704722
:1001C000F0170008DFF818C0EFF305831B0618BF0F
:1001D0006047EFF31483DB0708BF604700DF704719
:1001E000890F0008DFF818C0EFF305831B0618BF5E
:1001F0006047EFF31483DB0708BF604700DF7047F9
:10020000ED100008EFF30980816911F8021CC9BBE9
:1002100010B590E80F10E047BDE81040EFF3098CEF
:10022000204B93E80600914229D081B10CB41EF016
:10023000100F06BF2CED108A0323012381F8213013
:100240002CE9F00FC1F824C001F0ECF80CBC1A60E6
:10025000D2F824C0BCE8F00F92F8213013F0020F5E
:100260001ABFBCEC108A6FF0120E6FF0020E8CF306
:10027000098813F0010F08BF704792F82000CCF8EE
:100280000000704710B5084A1268914209D8074C1F
:1002900054F8214090E80F10A047EFF3098C8CE848
:1002A0000F0010BD240000209003000890030008F8
:1002B00010B500F0EBFFBDE81040194B93E80600C5
:1002C000914208BF70470CB4EFF3098C1EF0100F79
:1002D00006BF2CED108A0223002381F821302CE97F
:1002E000F00FC1F824C001F09DF80CBC1A60D2F8E0
:1002F00024C0BCE8F00F92F8213013F0020F1ABFAF
:10030000BCEC108A6FF0120E6FF0020E8CF30988AD
:1003100013F0010F1CBF92F82030CCF8003070476A
:100320002400002010B501F04FF9C4E710B500F02B
:100330000DFE01F049F9BEE70948016841F470017A
:1003400001600848804708480047FEE7FEE7FEE7EF
:10035000FEE7FEE7FEE7FEE7FEE7FEE7FEE700005A
:1003600088ED00E0910B000889010008064C074D5C
:1003700006E0E06840F0010394E807009847103475
:10038000AC42F6D3FFF704FF08180008281800084D
:10039000000000001CB540208DF8000000208DF802
:1003A000010007218DF802108DF803008DF804007C
:1003B000684600F069F90320DFF804C000DF1CBDC7
:1003C000991000080EB505A000F0CAFDC820DFF89E
:1003D00030C000DF684600F00BFAF7E75B4C45449D
:1003E0005D3A204143432055706461746520546137
:1003F000736B20537461727465642E2E2E0D0A0087
:1004000099100008FEE77047F0B5002201274FF071
:10041000030C0B6807FA02F52B40AB422CD106689F
:1004200053000CFA03F4A64306600E79D0F800E0FE
:100430009E4046EA0E0606600E79012E01D0022E7D
:1004400012D18668A64386604E79D0F808E09E40B7
:1004500046EA0E0686604668AE43466045688E7979
:100460009640B6B235434560C568A543C560CC79B2
:100470009C40C3681C43C460521C102AC9D3F0BD01
:100480004B07DB0E9A40C90810B500EB8100016AEA
:100490000F249C40A1430162016A1143016210BD17
:1004A0004183704701837047FEE700000120DFF8B9
:1004B0002CC000DF0AA000F053FD00F095F816A054
:1004C00000F04EFD00F0CEFC00F0B8FC1BA000F0E8
:1004D00047FD0020DFF894C000DF000099100008FD
:1004E0005B4D41494E5D3A205374617274696E6789
:1004F0002053797374656D205045524950484552D8
:10050000414C5320496E697469616C697361746907
:100510006F6E2E2E2E0D0A005B4D41494E5D3A2026
:100520005374617274696E672053797374656D20BA
:100530005441534B532E2E2E0D0A00005B4D414962
:100540004E5D3A205441534B5320616E6420504518
:10055000524950484552414C5320496E69742043DA
:100560006F6D706C6574652E0D0A00002917000808
:1005700010B586B00121102000F0ECF90121022015
:1005800000F0C4F902208DF814008020144C04906F
:1005900004A92046FFF738FF072211462046FFF73F
:1005A0006FFF4FF4165000900020ADF80400ADF836
:1005B0000600ADF80800ADF80C000420094CADF8B9
:1005C0000A006946204600F01DFB0121204600F08C
:1005D00007FB00F079FB06B0BDE8104000F0B6BBA9
:1005E00000040240004400401CB50121082000F036
:1005F0008DF94FF48050009001208DF80400002107
:100600008DF806108DF8070002208DF80500694668
:100610000148FFF7F9FE1CBD000C024000240EA0AB
:1006200000F09EFC144D154F4FF480561420DFF857
:1006300050C000DF641CE4B2032C01D0042CF5D1BF
:1006400001210520DFF83CC000DF686000B13E807A
:10065000042CEBD10024E9E75B4C45445D3A204C87
:100660004544205461736B20537461727465642E29
:100670002E2E0D0A000000001C000020180C024065
:10068000991000080516000838B5044600208DF8BA
:10069000000000F011F86078217822790843E178B1
:1006A00011430843A178012208438DF8000020215E
:1006B000684600F007F938BDF0B5012187B008039E
:1006C00000F048F90121084600F020F9012110202E
:1006D00000F01CF9304E052211463046FFF7D0FEDF
:1006E000052206213046FFF7CBFE052207213046C2
:1006F000FFF7C6FE02258DF8045000248DF8064051
:1007000020208DF8075000908DF80550694630463E
:10071000FFF77AFE8020009069463046FFF774FEAE
:100720004020009069463046FFF76EFE1B4F38466A
:1007300000F07CF9ADF810402802ADF81200072057
:10074000ADF81800ADF8084008264FF48270ADF8F7
:100750000C40ADF81460ADF80A00ADF80E40ADF8ED
:10076000164002A9384600F096F90121384600F0FB
:1007700053F901208DF804008DF80640084C0096CE
:100780008DF8055069462046FFF73EFE08212046B9
:10079000FFF788FE07B0F0BD0000024000300140C6
:1007A000001002402DE9F04114460546012A02D905
:1007B00041F0C00701E041F080070C4E08213046AF
:1007C000FFF76EFE384600F043F806E0002000F028
:1007D0003FF8641E05F8010BA4B2002CF6D1304698
:1007E000BDE8F0410821FFF75DBE000000100240A7
:1007F0003EB5054600240122202102A8FFF7D2FFC2
:10080000062229216846FFF7CDFF9DF808006946BA
:1008100010F020000ED020280BD101EB4400641C06
:1008200090F90000E4B200EBC000C00001C5032C49
:10083000F3D33EBD01EB4400641C90F90000E4B228
:1008400000EBC000400001C5032CF3D33EBD000007
:100850002DE9F041154C4FF4805507462560144EA4
:1008600003E02068411E216058B10221304600F0AB
:1008700007F90028F5D03946304600F00AF925601E
:1008800007E000F017F80DE02168481E20600029FD
:10089000F7D00121304600F0F3F80028F4D03046BC
:1008A00000F0F5F8C0B2BDE8F081000018000020AB
:1008B000003001406420DFF808C000DF00207047EE
:1008C000991000082DE9F041144605460F46012A0B
:1008D00001D941F040070B4E08213046FFF7E0FDFB
:1008E0003846FFF7B5FF05E02878FFF7B1FF641E33
:1008F000A4B26D1C002CF7D13046BDE8F0410821B0
:10090000FFF7D0BD00100240FEE77047044A0029FF
:10091000116801D0014300E081431160704700007D
:1009200030380240044A0029116801D0014300E038
:10093000814311607047000040380240044A00299A
:10094000116801D0014300E081431160704700004D
:1009500020380240044A0029116801D0014300E018
:10096000814311607047000044380240044A002966
:10097000116801D0014300E081431160704700001D
:100980002438024070B5214B1968214C11F00C013C
:1009900004D06610042903D0082903D004601BE0AA
:1009A000066019E0194A121F1168C1F380551168D9
:1009B00001F03F0115B1B6FBF1F101E0B4FBF1F13B
:1009C00014681268C4F388146143C2F30142521CD4
:1009D0005200B1FBF2F1016019680E4A01F0F0011A
:1009E0000909545C0168E14041601C6804F4E0546A
:1009F000A40A145D21FA04F484601B6803F46043C4
:100A00005B0BD25CD140C16070BD00000838024071
:100A10000024F400000000200029018802D041F0E9
:100A2000400101E021F0400101807047114910B5FB
:100A300088420AD1841401212046FFF797FF2046FF
:100A4000BDE810400021FFF791BF0B49884202D159
:100A50000121041404E0094988420AD10121C41388
:100A60002046FFF76BFF2046BDE810400021FFF74E
:100A700065BF10BD0030014000380040003C004020
:100A80000246002012890A4200D001207047808966
:100A900070478181704730B502884C8802F4415319
:100AA0000A88CD8822438C882C4322430C89224318
:100AB0004C8922438C892243CC8922431A430280E9
:100AC000828B22F400628283098A018230BD000099
:100AD000294A0020116841F4803111604FF4A0636D
:100AE000116800F1010011F4003F01D19842F7D1E3
:100AF0001068810321482FD5204938310B6843F015
:100B000080530B601E490B6843F480430B600168FF
:100B10000160016841F400410160016841F4A051A5
:100B20000160031F17491960116841F0807111605D
:100B300011688901FCD5144B40F205611960016808
:100B400021F003010160016841F0020101600168C8
:100B5000C1F381010229FAD1016821F40001016089
:100B600006490A487C310860106840F080601060D7
:100B700010680001FCD57047003802400838024078
:100B80000070004008544007003C02400030005014
:100B90000F4810B5016841F0010101600C4A0021C5
:100BA0000832116002680B4B1A400260031D0A4AAA
:100BB0001A60026822F48022026005480C3001604D
:100BC000FFF786FF05494FF00060086010BD000088
:100BD00000380240FFFFF6FE1030002408ED00E070
:100BE0000029818902D041F4005101E021F4005133
:100BF000818170470246002012880A4200D00120FD
:100C0000704700007FB50446008A0D46C98820F46D
:100C1000405001432182A08941F20C618843A98898
:100C20002A8911436A8902431143A181A08A20F4D1
:100C30004071A8890843A0826846FFF7A3FE1D48BB
:100C4000844202D01C48844201D1039800E00298FB
:100C5000A1890904002900EBC00101EB00102968FB
:100C600002DA4FEA410101E04FEA8101B0FBF1F005
:100C70006422B0FBF2F14FEA01114FEA11136FF059
:100C800018056B4300EB8300A3891D044FF032036A
:100C900006D503EBC000B0FBF2F000F0070005E062
:100CA00003EB0010B0FBF2F000F00F0008432081CE
:100CB0007FBD00000010014000140140C1F3080195
:100CC00081807047FEE7000070B5012186B04804BE
:100CD000FFF728FE01210846FFF718FE02208DF8D5
:100CE00014008DF8150000248DF816400120154ED3
:100CF0008DF817000C2504A930460495FFF784FBF6
:100D0000072202213046FFF7BBFB072203213046B2
:100D1000FFF7B6FBADF80440ADF80640ADF808406B
:100D2000ADF80C404FF4E130074C0090ADF80A509C
:100D300069462046FFF766FF01212046FFF750FF76
:100D400006B070BD000002400044004030B50121F3
:100D500087B08804FFF7E6FD01210820FFF7D6FDE4
:100D600002208DF814008DF8150000248DF816402F
:100D700001208DF817004FF44070144D049004A921
:100D80002846FFF741FB072208212846FFF778FB9A
:100D9000072209212846FFF773FB4FF4E13000904A
:100DA000ADF808400C20ADF80440ADF80A00ADF8ED
:100DB0000640ADF80C4069460548FFF723FF0121C6
:100DC0000448FFF70DFF07B030BD0000000C0240E3
:100DD000004400400048004002E008C8121F08C15B
:100DE000002AFAD170477047002001E001C1121FAC
:100DF000002AFBD1704710B5002A06DA22F0004223
:100E0000D21D22F00703102203E0D21C22F00303BC
:100E10000C2213B19C188C4201D9012010BD024450
:100E200001448360C0E90021C91AD018884202D861
:100E300010600246F9E70020106010BD0023044A4C
:100E400004490548DFF814C000DF05490860704711
:100E50009811002007000300C5030008951600083C
:100E60001400002000231A4619460348DFF80CC07E
:100E700000DF0349086070471D060008951600084A
:100E80001C00002008480068C0010BD50748006816
:100E9000C00707D0054880380068002802DA0449F6
:100EA0000120087070470000FCED00E0800E00E0BB
:100EB000380000204FF06042D36F002BFCD0C36A93
:100EC000D367D36F002BFCD0C07840EA0120A2F892
:100ED0007C0070474FF06041CA6F002AFCD081F857
:100EE0007C00704710B5FFF743FB0120DFF824C0FA
:100EF00000DFFFF74FFA0120DFF818C000DFFFF72F
:100F000053F9002211460448DFF810C000DF00202A
:100F100010BD000099100008AD040008711400080D
:100F2000FEE7FEE7074801684FF0E020416100213D
:100F30008161072101610448016841F07F4101603E
:100F400040177047EC17000820ED00E070470000E4
:100F5000012802D101490003088070471A0C0240A1
:100F600070B50446074D09E02846FFF7A7FE40216B
:100F70002846FFF73FFE0028F9D0641C217800299D
:100F8000F2D170BD0044004050E8001F31B10B6841
:100F900040E80032002AF7D108467047BFF32F8F90
:100FA000FAE7000070B50D46002812D04FF6FF7129
:100FB000084C884204D222680146104600F0A2F98B
:100FC00020684570044800F0A1F8BDE8704000F0CA
:100FD0003BBA70BD24000020C814002070470000F8
:100FE00070B51A4DE86800282ED0A88A401EA88245
:100FF000002623E0A06838B161684160606810B1E4
:10100000A16881606660A66010482146183800F02B
:101010009DF9A08AA8826078042804D10C49E08A4E
:1010200009880844A0820120607084F82000E068EC
:10103000E860E06808B10561E6602661A88A0028DA
:1010400002D1EC68002CD5D170BD0000E014002066
:101050002C00002070B504000FD00D4DA1780126A2
:101060002868827891420CD900F08CF92868467083
:101070002046BDE8704000F0E7B9064800F046F8A9
:10108000F7E766702146BDE87040024800F05EB99F
:1010900024000020C81400200321FFF783BF0000B4
:1010A00010B50446008B084320836278618B062AC2
:1010B00016D0052A17D1084215D001EA0002628332
:1010C00088432083204600F067F9012060700220E9
:1010D00084F820002146BDE81040034800F036B9EE
:1010E00031EA0002ECD010BDC8140020814202D3C6
:1010F00042688A4201D80120704750E8002F0A60F8
:1011000040E80012002AF8D10020704701464068EC
:1011100042684A600B780022022B05D0012B03D0D5
:10112000032B01D04260704743680BB19960426065
:101130008260704770B50446002015462070012279
:101140006270A1706060A060E0602061A082E082B7
:101150002083608384F8200084F82100608C18B913
:101160000448FFF711FFA06229462046BDE8704001
:1011700000F004B8E00000207047000010B5428C79
:10118000920803D10F4A1288C2F38D02836A03EBDF
:101190008202530700D5121F403A4FF08073C2E914
:1011A0000E1300234FEA030442F823405B1C0E2B6E
:1011B000FAD3C36913624262C162806A0249016064
:1011C00010BD0000E8170008A52E5AE22DE9F041F5
:1011D0000F4604464168002004F10C0621B16178F5
:1011E00002291AD0A189A9B3A189E289914246D2E4
:1011F000218904EB81010F61D6E85F1F491CC6E815
:10120000521F002AF8D12189491C89B22181E28923
:10121000914200D12081BDE8F081074660702046F0
:10122000FFF774FF80F820702189054604EB8101E7
:10123000C0690861D6E85F0F401CC6E8510F00295D
:10124000F8D12089401C80B22081E18988420BD1ED
:10125000278109E0FFE72046FFF758FF0546C069F0
:101260000421076085F8201001206870284600F0EE
:1012700093F82946BDE8F041034800F067B8BDE89F
:10128000F0410320FFF74CBEC814002070B51A4887
:1012900001210068417000F075F8184D6C7816E077
:1012A00005EBC40148680278E2B1012A1FD000F0C2
:1012B0009FF8E878641C844200D100240F48801C09
:1012C000D0E84F1F491EC0E8421F002AF8D1A87875
:1012D0000028E5D16C700A48FFF718FFBDE87040A0
:1012E00000F0B2B8098989B2FFF7DAFEE1E7896850
:1012F000FFF76CFFDDE7000024000020F010002065
:10130000C8140020104A10B5D368ABB113469B8AAD
:1013100003E08CB12246A48A2344D4688B42F8D3DC
:10132000C460D0600261C46804B12061591A81822E
:10133000908A401A908210BD0024C460D060C91AFF
:1013400002619182848210BDE014002030B50278E1
:101350000023022A03D0012A01D0032A00D101234D
:101360008C7800E01046426812B19578A542F9D217
:101370004A6041601BB102B19160886030BD0020BD
:10138000FBE7000003494A6842600022826048602F
:1013900070470000C814002010B5016900290ED064
:1013A000C268CA60C36800223BB18B8A848A234426
:1013B0008B82C3681961C26000E08A82026110BD3D
:1013C000816839B142684A604168002901D080686B
:1013D00088607047054906E04A68824202D1406849
:1013E0004860704711460029F6D17047C8140020A4
:1013F00010B5416879B1FFF789FE0446FFF7CCFFCD
:1014000001206070032084F820002146BDE81040D0
:101410000348FFF79BBF4188491C418010BD000075
:10142000C814002006480068D0E90910814203D39F
:1014300000680449884202D00120FFF771BD70475F
:1014400024000020A52E5AE207490222486042707B
:10145000064A1278002A05D006C98A4202D0C0780E
:10146000FFF738BD7047000024000020380000203E
:101470002DE9F047164688468146FFF703FD002018
:1014800004463E4A3E4902E042F82040401C0B8898
:101490009842F9D33B48302201883B48FFF7ABFC28
:1014A0003A48008880B240F0004239480168394823
:1014B000FFF7A1FC38480822018838480068FFF788
:1014C0009AFC374FFF25374AFD707C84002138464F
:1014D000FFF730FE34480421017044603348017046
:1014E000C46004618482786A2030FEF757FE304879
:1014F00031490760022078702E48047044700978E2
:10150000C170FFF739FE2D48016841F47F01016089
:101510000068290601EA00202849C0431439B0FABE
:1015200080F00968C0F10800C1F30221814200DBAC
:10153000481C2249091F0B686FF08072824063F3D8
:1015400017020A60FFF7EEFC1D49002808600CDB5B
:101550001C49455400F01F020121914040114FF0F9
:10156000E02202EB8000C0F80011324641464846B6
:10157000BDE8F047002300F08DB800007411002092
:10158000E4170008FC17000844000020E8170008D2
:1015900000180008E00000200618000810000020D5
:1015A00098140020230F0008C8140020E014002025
:1015B00024000020F01000200418000820ED00E0B6
:1015C0004000002000E400E00B4810B50068012155
:1015D0004170FFF7D7FEFFF701FD08480168491C7D
:1015E0000160FFF7FDFC00F035F80548FFF78EFDC0
:1015F000BDE81040FFF728BF240000202C00002089
:10160000C814002070B50D4604000AD00F480068C9
:1016100038B1FFF7B9FC002804D00D49C5808A888D
:1016200004E0002070BD19469B881A44A24202D2F1
:101630000B68002BF7D10B68121B036082800860D7
:101640008A888388D21A8A8070BD0000100000202A
:101650003000002070B50D4C2068002815D0A088FF
:101660000B4E401EA0800AE0E888FFF771FCA888B6
:10167000A0802868206029463068FFF737FDA088E1
:10168000002802D12568002DEED170BD3000002069
:10169000100000202DE9F0411E46174680460C46FA
:1016A00011F0FF0F00D14C1C1A48FFF76DFC05002C
:1016B0002DD0C4F30F20AF626884E1B242462846C1
:1016C000EE61FFF737FD01241348144906E000BF1F
:1016D00000EB840252F8042C22B1641C0A88944264
:1016E000F6D9002400EB8400E6B240F8045C0C4814
:1016F000EE70007818B101212846FFF7DBFB284681
:10170000FFF7A8FC0748006880F820602046BDE885
:10171000F08100004400002074110020E41700084C
:1017200038000020240000202DE9F041284C274FEC
:10173000284E2168002510B1CA78824220D14D7010
:10174000FEF72FFD21684862FFF76CFE2068C17824
:1017500006EB810141F8045C816A1F48FFF7C6FC73
:1017600020688562397811B10021FFF7A3FB1B487F
:101770002168FFF7BBFC00202560FFF76BFC1FE032
:101780001749098888421ED806EB800656F8044C93
:10179000CCB12046FFF714FE2046FFF7FDFD46F8CA
:1017A000045C0D48A16AFFF7A1FCA562387818B166
:1017B00000212046FFF77EFB21460848FFF796FCF4
:1017C0000020BDE8F081FF20FBE70000380000208A
:1017D0002400002074110020E000002044000020BC
:1017E000E417000803000000000400017FA21900B4
:1017F0000100000010270000010000009C00000014
:10180000101000001000140028180008000000202C
:1018100044000000D80D00086C18000844000020A7
:10182000B4180000E80D00080000000001020304E5
:1018300001020304060708098011002000000000CF
:101840000010000000000000000000000000000088
:101850000000000000000000000000000000000088
:0C1860000000000000000000000000007C
:0400000508000339B3
:00000001FF
